:020000020000FC
:100000004FC048656C6C6F20576F726C640048EC91
:1000100050E26EE4AA94AA20D1F3052F162F0E9475
:100020005B005C53604000E01DE720E00E9456004A
:10003000089508950091BC0007FF0E9420000895D4
:100040000091B900087F0030A1F7089504EA0093F9
:10005000BC000E941A00089504E90093BC000093BC
:10006000BB0004E80093BC0008951093BB0004E8B3
:100070000093BC000F931F930E9426000F910E94D3
:100080002F001F910E9435000E942C00003030305C
:100090002000208000F0001007E21FEF089508956F
:1000A00008E00EBF0FEF0DBF219AFFCF01501040A7
:1000B0002040E1F7089510938B0000938A00169575
:1000C0000795109389000093880003E60093800051
:0800D0000AE10093810008958C
:00000001FF
