:020000020000FC
:1000000022C048656C6C6F20576F726C640048ECBE
:1000100050E26EE4AA94AA20D1F3052F162F0E9475
:1000200032005C53604000E01DE720E00E942D009C
:100030000895003030302000208000F0001007E2EA
:100040001FEF0895089508E00EBF0FEF0DBF209A2F
:10005000219A229A0E941F00FFCF01501040204099
:10006000E1F7089510938B0000938A001695079589
:10007000109389000093880003E6009380000AE152
:06008000009381000895C9
:00000001FF
